:1000000000308A0019280000213084008313000882
:10001000031918280530F800F701F70B0D28F80B25
:100020000C282E30F700F70B13281628800B0A280F
:100030000034840183131F3083058316031787114F
:100040000C3003139900E2309800D03083129800EE
:10005000831603170908C039890003131F129F1262
:10006000003003178800831287018801890100305E
:100070008316031386008500870088000910891005
:100080000911013083128600C830A100042002301B
:100090008600C830A100042004308600C830A100CA
:1000A000042008308600C830A100042010308600EB
:1000B000C830A100042020308600C830A1000420F0
:1000C00040308600C830A100042080308600C8304F
:0A00D000A1000420831641286300FC
:04400E00F22FFF3F4F
:00000001FF
;PIC16F887
